{
  "contractName": "SchoolDatabaseMigration",
  "abi": [
    {
      "inputs": [],
      "stateMutability": "nonpayable",
      "type": "constructor"
    },
    {
      "inputs": [],
      "name": "migrate",
      "outputs": [],
      "stateMutability": "nonpayable",
      "type": "function"
    }
  ],
  "bytecode": "0x608060405234801561001057600080fd5b5060405161001d9061007e565b604051809103906000f080158015610039573d6000803e3d6000fd5b506000806101000a81548173ffffffffffffffffffffffffffffffffffffffff021916908373ffffffffffffffffffffffffffffffffffffffff16021790555061008b565b61102b8061010683390190565b606d806100996000396000f3fe6080604052348015600f57600080fd5b506004361060285760003560e01c80638fd3ab8014602d575b600080fd5b60336035565b005b56fea26469706673582212206f119936baec7aa26e3068086c07ab832f2974f274e447538aac5285ea878ce864736f6c63430008130033608060405234801561001057600080fd5b5061100b806100206000396000f3fe608060405234801561001057600080fd5b50600436106100625760003560e01c8063018ed11e146100675780630667867f146100835780630a47834a1461009f5780632dac55d9146100bb57806397ab7d8c146100eb578063c1a8f9c91461011b575b600080fd5b610081600480360381019061007c9190610780565b61014b565b005b61009d60048036038101906100989190610780565b6101f0565b005b6100b960048036038101906100b491906107ff565b610296565b005b6100d560048036038101906100d09190610780565b610423565b6040516100e29190610876565b60405180910390f35b610105600480360381019061010091906108ef565b610458565b6040516101129190610a5d565b60405180910390f35b61013560048036038101906101309190610a7f565b610570565b6040516101429190610b99565b60405180910390f35b60028160405161015b9190610bf7565b908152602001604051809103902060009054906101000a900460ff166101b6576040517f08c379a00000000000000000000000000000000000000000000000000000000081526004016101ad90610c6b565b60405180910390fd5b60006002826040516101c89190610bf7565b908152602001604051809103902060006101000a81548160ff02191690831515021790555050565b6002816040516102009190610bf7565b908152602001604051809103902060009054906101000a900460ff161561025c576040517f08c379a000000000000000000000000000000000000000000000000000000000815260040161025390610cd7565b60405180910390fd5b600160028260405161026e9190610bf7565b908152602001604051809103902060006101000a81548160ff02191690831515021790555050565b6002826040516102a69190610bf7565b908152602001604051809103902060009054906101000a900460ff16610301576040517f08c379a00000000000000000000000000000000000000000000000000000000081526004016102f890610c6b565b60405180910390fd5b60008060003373ffffffffffffffffffffffffffffffffffffffff1673ffffffffffffffffffffffffffffffffffffffff1681526020019081526020016000208360405161034f9190610bf7565b9081526020016040518091039020905080600101829080600181540180825580915050600190039060005260206000200160009091909190915055600181600101805490500361041e57828160000190816103aa9190610f03565b50600160003373ffffffffffffffffffffffffffffffffffffffff1673ffffffffffffffffffffffffffffffffffffffff1681526020019081526020016000208390806001815401808255809150506001900390600052602060002001600090919091909150908161041c9190610f03565b505b505050565b60006002826040516104359190610bf7565b908152602001604051809103902060009054906101000a900460ff169050919050565b6060600160008373ffffffffffffffffffffffffffffffffffffffff1673ffffffffffffffffffffffffffffffffffffffff168152602001908152602001600020805480602002602001604051908101604052809291908181526020016000905b828210156105655783829060005260206000200180546104d890610d26565b80601f016020809104026020016040519081016040528092919081815260200182805461050490610d26565b80156105515780601f1061052657610100808354040283529160200191610551565b820191906000526020600020905b81548152906001019060200180831161053457829003601f168201915b5050505050815260200190600101906104b9565b505050509050919050565b60606000808473ffffffffffffffffffffffffffffffffffffffff1673ffffffffffffffffffffffffffffffffffffffff168152602001908152602001600020826040516105be9190610bf7565b908152602001604051809103902060010180548060200260200160405190810160405280929190818152602001828054801561061957602002820191906000526020600020905b815481526020019060010190808311610605575b5050505050905092915050565b6000604051905090565b600080fd5b600080fd5b600080fd5b600080fd5b6000601f19601f8301169050919050565b7f4e487b7100000000000000000000000000000000000000000000000000000000600052604160045260246000fd5b61068d82610644565b810181811067ffffffffffffffff821117156106ac576106ab610655565b5b80604052505050565b60006106bf610626565b90506106cb8282610684565b919050565b600067ffffffffffffffff8211156106eb576106ea610655565b5b6106f482610644565b9050602081019050919050565b82818337600083830152505050565b600061072361071e846106d0565b6106b5565b90508281526020810184848401111561073f5761073e61063f565b5b61074a848285610701565b509392505050565b600082601f8301126107675761076661063a565b5b8135610777848260208601610710565b91505092915050565b60006020828403121561079657610795610630565b5b600082013567ffffffffffffffff8111156107b4576107b3610635565b5b6107c084828501610752565b91505092915050565b6000819050919050565b6107dc816107c9565b81146107e757600080fd5b50565b6000813590506107f9816107d3565b92915050565b6000806040838503121561081657610815610630565b5b600083013567ffffffffffffffff81111561083457610833610635565b5b61084085828601610752565b9250506020610851858286016107ea565b9150509250929050565b60008115159050919050565b6108708161085b565b82525050565b600060208201905061088b6000830184610867565b92915050565b600073ffffffffffffffffffffffffffffffffffffffff82169050919050565b60006108bc82610891565b9050919050565b6108cc816108b1565b81146108d757600080fd5b50565b6000813590506108e9816108c3565b92915050565b60006020828403121561090557610904610630565b5b6000610913848285016108da565b91505092915050565b600081519050919050565b600082825260208201905092915050565b6000819050602082019050919050565b600081519050919050565b600082825260208201905092915050565b60005b83811015610982578082015181840152602081019050610967565b60008484015250505050565b600061099982610948565b6109a38185610953565b93506109b3818560208601610964565b6109bc81610644565b840191505092915050565b60006109d3838361098e565b905092915050565b6000602082019050919050565b60006109f38261091c565b6109fd8185610927565b935083602082028501610a0f85610938565b8060005b85811015610a4b5784840389528151610a2c85826109c7565b9450610a37836109db565b925060208a01995050600181019050610a13565b50829750879550505050505092915050565b60006020820190508181036000830152610a7781846109e8565b905092915050565b60008060408385031215610a9657610a95610630565b5b6000610aa4858286016108da565b925050602083013567ffffffffffffffff811115610ac557610ac4610635565b5b610ad185828601610752565b9150509250929050565b600081519050919050565b600082825260208201905092915050565b6000819050602082019050919050565b610b10816107c9565b82525050565b6000610b228383610b07565b60208301905092915050565b6000602082019050919050565b6000610b4682610adb565b610b508185610ae6565b9350610b5b83610af7565b8060005b83811015610b8c578151610b738882610b16565b9750610b7e83610b2e565b925050600181019050610b5f565b5085935050505092915050565b60006020820190508181036000830152610bb38184610b3b565b905092915050565b600081905092915050565b6000610bd182610948565b610bdb8185610bbb565b9350610beb818560208601610964565b80840191505092915050565b6000610c038284610bc6565b915081905092915050565b600082825260208201905092915050565b7f5375626a65637420646f6573206e6f7420657869737400000000000000000000600082015250565b6000610c55601683610c0e565b9150610c6082610c1f565b602082019050919050565b60006020820190508181036000830152610c8481610c48565b9050919050565b7f5375626a65637420616c72656164792065786973747300000000000000000000600082015250565b6000610cc1601683610c0e565b9150610ccc82610c8b565b602082019050919050565b60006020820190508181036000830152610cf081610cb4565b9050919050565b7f4e487b7100000000000000000000000000000000000000000000000000000000600052602260045260246000fd5b60006002820490506001821680610d3e57607f821691505b602082108103610d5157610d50610cf7565b5b50919050565b60008190508160005260206000209050919050565b60006020601f8301049050919050565b600082821b905092915050565b600060088302610db97fffffffffffffffffffffffffffffffffffffffffffffffffffffffffffffffff82610d7c565b610dc38683610d7c565b95508019841693508086168417925050509392505050565b6000819050919050565b6000610e00610dfb610df6846107c9565b610ddb565b6107c9565b9050919050565b6000819050919050565b610e1a83610de5565b610e2e610e2682610e07565b848454610d89565b825550505050565b600090565b610e43610e36565b610e4e818484610e11565b505050565b5b81811015610e7257610e67600082610e3b565b600181019050610e54565b5050565b601f821115610eb757610e8881610d57565b610e9184610d6c565b81016020851015610ea0578190505b610eb4610eac85610d6c565b830182610e53565b50505b505050565b600082821c905092915050565b6000610eda60001984600802610ebc565b1980831691505092915050565b6000610ef38383610ec9565b9150826002028217905092915050565b610f0c82610948565b67ffffffffffffffff811115610f2557610f24610655565b5b610f2f8254610d26565b610f3a828285610e76565b600060209050601f831160018114610f6d5760008415610f5b578287015190505b610f658582610ee7565b865550610fcd565b601f198416610f7b86610d57565b60005b82811015610fa357848901518255600182019150602085019450602081019050610f7e565b86831015610fc05784890151610fbc601f891682610ec9565b8355505b6001600288020188555050505b50505050505056fea2646970667358221220e824fb2c17352f1f8dca2ad4b546467d58f5f8e6ca1d510fddfc2ba2817c5a4064736f6c63430008130033",
  "immutableReferences": {},
  "source": "// SPDX-License-Identifier: MIT\r\npragma solidity ^0.8.0;\r\n\r\nimport \"./SchoolDatabase.sol\";\r\n\r\ncontract SchoolDatabaseMigration {\r\n    SchoolDatabase private schoolDatabase;\r\n\r\n    constructor() {\r\n        schoolDatabase = new SchoolDatabase();\r\n    }\r\n\r\n    function migrate() public {\r\n        // Perform any necessary data migration\r\n    }\r\n}\r\n",
  "sourcePath": "C:\\Users\\EVIDENCE\\data\\contracts\\SchoolDatabaseMigration.sol",
  "compiler": {
    "name": "solc",
    "version": "0.8.19+commit.7dd6d404.Emscripten.clang"
  },
  "schemaVersion": "3.4.13",
  "updatedAt": "2023-03-17T08:24:34.392Z",
  "networkType": "ethereum",
  "devdoc": {
    "kind": "dev",
    "methods": {},
    "version": 1
  },
  "userdoc": {
    "kind": "user",
    "methods": {},
    "version": 1
  }
}