{
  "contractName": "SchoolDatabaseMigration",
  "abi": [
    {
      "inputs": [
        {
          "internalType": "contract SchoolDatabase",
          "name": "_oldDatabase",
          "type": "address"
        }
      ],
      "stateMutability": "nonpayable",
      "type": "constructor"
    },
    {
      "inputs": [],
      "name": "newDatabase",
      "outputs": [
        {
          "internalType": "contract SchoolDatabase",
          "name": "",
          "type": "address"
        }
      ],
      "stateMutability": "view",
      "type": "function",
      "constant": true
    },
    {
      "inputs": [],
      "name": "oldDatabase",
      "outputs": [
        {
          "internalType": "contract SchoolDatabase",
          "name": "",
          "type": "address"
        }
      ],
      "stateMutability": "view",
      "type": "function",
      "constant": true
    },
    {
      "inputs": [],
      "name": "migrate",
      "outputs": [],
      "stateMutability": "nonpayable",
      "type": "function"
    }
  ],
  "bytecode": "0x608060405234801561001057600080fd5b506040516113d43803806113d483398181016040528101906100329190610163565b806000806101000a81548173ffffffffffffffffffffffffffffffffffffffff021916908373ffffffffffffffffffffffffffffffffffffffff16021790555060405161007e906100e1565b604051809103906000f08015801561009a573d6000803e3d6000fd5b50600160006101000a81548173ffffffffffffffffffffffffffffffffffffffff021916908373ffffffffffffffffffffffffffffffffffffffff16021790555050610190565b610afc806108d883390190565b600080fd5b600073ffffffffffffffffffffffffffffffffffffffff82169050919050565b600061011e826100f3565b9050919050565b600061013082610113565b9050919050565b61014081610125565b811461014b57600080fd5b50565b60008151905061015d81610137565b92915050565b600060208284031215610179576101786100ee565b5b60006101878482850161014e565b91505092915050565b6107398061019f6000396000f3fe608060405234801561001057600080fd5b50600436106100415760003560e01c80638fd3ab8014610046578063a9f35faf14610050578063e21c8abb1461006e575b600080fd5b61004e61008c565b005b610058610281565b604051610065919061034a565b60405180910390f35b6100766102a7565b604051610083919061034a565b60405180910390f35b60008060009054906101000a900473ffffffffffffffffffffffffffffffffffffffff1673ffffffffffffffffffffffffffffffffffffffff1663a9be87ec6040518163ffffffff1660e01b8152600401602060405180830381865afa1580156100fa573d6000803e3d6000fd5b505050506040513d601f19601f8201168201806040525081019061011e91906103af565b905060005b8181101561027d5760008060008060009054906101000a900473ffffffffffffffffffffffffffffffffffffffff1673ffffffffffffffffffffffffffffffffffffffff1663642f9163856040518263ffffffff1660e01b815260040161018a91906103eb565b600060405180830381865afa1580156101a7573d6000803e3d6000fd5b505050506040513d6000823e3d601f19601f820116820180604052508101906101d09190610567565b925092509250600160009054906101000a900473ffffffffffffffffffffffffffffffffffffffff1673ffffffffffffffffffffffffffffffffffffffff1663ed32a8a18484846040518463ffffffff1660e01b815260040161023593929190610647565b600060405180830381600087803b15801561024f57600080fd5b505af1158015610263573d6000803e3d6000fd5b505050505050508080610275906106bb565b915050610123565b5050565b600160009054906101000a900473ffffffffffffffffffffffffffffffffffffffff1681565b60008054906101000a900473ffffffffffffffffffffffffffffffffffffffff1681565b600073ffffffffffffffffffffffffffffffffffffffff82169050919050565b6000819050919050565b600061031061030b610306846102cb565b6102eb565b6102cb565b9050919050565b6000610322826102f5565b9050919050565b600061033482610317565b9050919050565b61034481610329565b82525050565b600060208201905061035f600083018461033b565b92915050565b6000604051905090565b600080fd5b600080fd5b6000819050919050565b61038c81610379565b811461039757600080fd5b50565b6000815190506103a981610383565b92915050565b6000602082840312156103c5576103c461036f565b5b60006103d38482850161039a565b91505092915050565b6103e581610379565b82525050565b600060208201905061040060008301846103dc565b92915050565b600080fd5b600080fd5b6000601f19601f8301169050919050565b7f4e487b7100000000000000000000000000000000000000000000000000000000600052604160045260246000fd5b61045982610410565b810181811067ffffffffffffffff8211171561047857610477610421565b5b80604052505050565b600061048b610365565b90506104978282610450565b919050565b600067ffffffffffffffff8211156104b7576104b6610421565b5b6104c082610410565b9050602081019050919050565b60005b838110156104eb5780820151818401526020810190506104d0565b60008484015250505050565b600061050a6105058461049c565b610481565b9050828152602081018484840111156105265761052561040b565b5b6105318482856104cd565b509392505050565b600082601f83011261054e5761054d610406565b5b815161055e8482602086016104f7565b91505092915050565b6000806000606084860312156105805761057f61036f565b5b600084015167ffffffffffffffff81111561059e5761059d610374565b5b6105aa86828701610539565b93505060206105bb8682870161039a565b925050604084015167ffffffffffffffff8111156105dc576105db610374565b5b6105e886828701610539565b9150509250925092565b600081519050919050565b600082825260208201905092915050565b6000610619826105f2565b61062381856105fd565b93506106338185602086016104cd565b61063c81610410565b840191505092915050565b60006060820190508181036000830152610661818661060e565b905061067060208301856103dc565b8181036040830152610682818461060e565b9050949350505050565b7f4e487b7100000000000000000000000000000000000000000000000000000000600052601160045260246000fd5b60006106c682610379565b91507fffffffffffffffffffffffffffffffffffffffffffffffffffffffffffffffff82036106f8576106f761068c565b5b60018201905091905056fea2646970667358221220642ad0c89fadd0bb5afb7ab42305852782573798ab19415033f81718f68a982f64736f6c63430008130033608060405234801561001057600080fd5b50610adc806100206000396000f3fe608060405234801561001057600080fd5b506004361061004c5760003560e01c806306ead22e14610051578063642f916314610083578063a9be87ec146100b5578063ed32a8a1146100d3575b600080fd5b61006b600480360381019061006691906104ad565b6100ef565b60405161007a93929190610579565b60405180910390f35b61009d600480360381019061009891906104ad565b610239565b6040516100ac93929190610579565b60405180910390f35b6100bd6103d4565b6040516100ca91906105be565b60405180910390f35b6100ed60048036038101906100e8919061070e565b6103e0565b005b600081815481106100ff57600080fd5b9060005260206000209060030201600091509050806000018054610122906107c8565b80601f016020809104026020016040519081016040528092919081815260200182805461014e906107c8565b801561019b5780601f106101705761010080835404028352916020019161019b565b820191906000526020600020905b81548152906001019060200180831161017e57829003601f168201915b5050505050908060010154908060020180546101b6906107c8565b80601f01602080910402602001604051908101604052809291908181526020018280546101e2906107c8565b801561022f5780601f106102045761010080835404028352916020019161022f565b820191906000526020600020905b81548152906001019060200180831161021257829003601f168201915b5050505050905083565b60606000606060008481548110610253576102526107f9565b5b906000526020600020906003020160000160008581548110610278576102776107f9565b5b9060005260206000209060030201600101546000868154811061029e5761029d6107f9565b5b90600052602060002090600302016002018280546102bb906107c8565b80601f01602080910402602001604051908101604052809291908181526020018280546102e7906107c8565b80156103345780601f1061030957610100808354040283529160200191610334565b820191906000526020600020905b81548152906001019060200180831161031757829003601f168201915b50505050509250808054610347906107c8565b80601f0160208091040260200160405190810160405280929190818152602001828054610373906107c8565b80156103c05780601f10610395576101008083540402835291602001916103c0565b820191906000526020600020905b8154815290600101906020018083116103a357829003601f168201915b505050505090509250925092509193909250565b60008080549050905090565b60006040518060600160405280858152602001848152602001838152509080600181540180825580915050600190039060005260206000209060030201600090919091909150600082015181600001908161043b91906109d4565b5060208201518160010155604082015181600201908161045b91906109d4565b505050505050565b6000604051905090565b600080fd5b600080fd5b6000819050919050565b61048a81610477565b811461049557600080fd5b50565b6000813590506104a781610481565b92915050565b6000602082840312156104c3576104c261046d565b5b60006104d184828501610498565b91505092915050565b600081519050919050565b600082825260208201905092915050565b60005b838110156105145780820151818401526020810190506104f9565b60008484015250505050565b6000601f19601f8301169050919050565b600061053c826104da565b61054681856104e5565b93506105568185602086016104f6565b61055f81610520565b840191505092915050565b61057381610477565b82525050565b600060608201905081810360008301526105938186610531565b90506105a2602083018561056a565b81810360408301526105b48184610531565b9050949350505050565b60006020820190506105d3600083018461056a565b92915050565b600080fd5b600080fd5b7f4e487b7100000000000000000000000000000000000000000000000000000000600052604160045260246000fd5b61061b82610520565b810181811067ffffffffffffffff8211171561063a576106396105e3565b5b80604052505050565b600061064d610463565b90506106598282610612565b919050565b600067ffffffffffffffff821115610679576106786105e3565b5b61068282610520565b9050602081019050919050565b82818337600083830152505050565b60006106b16106ac8461065e565b610643565b9050828152602081018484840111156106cd576106cc6105de565b5b6106d884828561068f565b509392505050565b600082601f8301126106f5576106f46105d9565b5b813561070584826020860161069e565b91505092915050565b6000806000606084860312156107275761072661046d565b5b600084013567ffffffffffffffff81111561074557610744610472565b5b610751868287016106e0565b935050602061076286828701610498565b925050604084013567ffffffffffffffff81111561078357610782610472565b5b61078f868287016106e0565b9150509250925092565b7f4e487b7100000000000000000000000000000000000000000000000000000000600052602260045260246000fd5b600060028204905060018216806107e057607f821691505b6020821081036107f3576107f2610799565b5b50919050565b7f4e487b7100000000000000000000000000000000000000000000000000000000600052603260045260246000fd5b60008190508160005260206000209050919050565b60006020601f8301049050919050565b600082821b905092915050565b60006008830261088a7fffffffffffffffffffffffffffffffffffffffffffffffffffffffffffffffff8261084d565b610894868361084d565b95508019841693508086168417925050509392505050565b6000819050919050565b60006108d16108cc6108c784610477565b6108ac565b610477565b9050919050565b6000819050919050565b6108eb836108b6565b6108ff6108f7826108d8565b84845461085a565b825550505050565b600090565b610914610907565b61091f8184846108e2565b505050565b5b818110156109435761093860008261090c565b600181019050610925565b5050565b601f8211156109885761095981610828565b6109628461083d565b81016020851015610971578190505b61098561097d8561083d565b830182610924565b50505b505050565b600082821c905092915050565b60006109ab6000198460080261098d565b1980831691505092915050565b60006109c4838361099a565b9150826002028217905092915050565b6109dd826104da565b67ffffffffffffffff8111156109f6576109f56105e3565b5b610a0082546107c8565b610a0b828285610947565b600060209050601f831160018114610a3e5760008415610a2c578287015190505b610a3685826109b8565b865550610a9e565b601f198416610a4c86610828565b60005b82811015610a7457848901518255600182019150602085019450602081019050610a4f565b86831015610a915784890151610a8d601f89168261099a565b8355505b6001600288020188555050505b50505050505056fea2646970667358221220a0093ec1c27f39546670b59c0bcbe3710b433da5de73bf214d1cd7e3e521300e64736f6c63430008130033",
  "immutableReferences": {},
  "source": "// SPDX-License-Identifier: MIT\r\npragma solidity ^0.8.0;\r\n\r\nimport \"./SchoolDatabase.sol\";\r\n\r\ncontract SchoolDatabaseMigration {\r\n    SchoolDatabase public oldDatabase;\r\n    SchoolDatabase public newDatabase;\r\n\r\n    constructor(SchoolDatabase _oldDatabase) {\r\n        oldDatabase = _oldDatabase;\r\n        newDatabase = new SchoolDatabase();\r\n    }\r\n\r\n    function migrate() public {\r\n        uint256 numStudents = oldDatabase.getNumStudents();\r\n\r\n        for (uint256 i = 0; i < numStudents; i++) {\r\n            (string memory name, uint256 age, string memory major) = oldDatabase\r\n                .getStudent(i);\r\n            newDatabase.addStudent(name, age, major);\r\n        }\r\n    }\r\n}\r\n",
  "sourcePath": "C:\\Users\\EVIDENCE\\Documents\\data\\contracts\\SchoolDatabaseMigration.sol",
  "compiler": {
    "name": "solc",
    "version": "0.8.19+commit.7dd6d404.Emscripten.clang"
  },
  "schemaVersion": "3.4.13",
  "updatedAt": "2023-03-18T08:57:34.687Z",
  "networkType": "ethereum",
  "devdoc": {
    "kind": "dev",
    "methods": {},
    "version": 1
  },
  "userdoc": {
    "kind": "user",
    "methods": {},
    "version": 1
  }
}